:100000000C946D000C9495000C9495000C94B00425
:100010000C94B0040C94B0040C9495000C949500CE
:100020000C9495000C9495000C9495000C94BB05D1
:100030000C9495000C9495000C9495000C949500EC
:100040000C9466040C9495000C9420030C94FA0212
:100050000C9495000C9495000C9495000C949500CC
:100060000C9495000C9495009C09A309AF09C00954
:10007000C209C909D509E609FC09FE09000000000A
:10008000240027002A0000000008000201000003ED
:100090000407000000000000000000000000250030
:1000A00028002B0000000000230026002900040483
:1000B0000404040404040202020202020303030310
:1000C00003030102040810204080010204081020EC
:1000D0000102040810209F0E060B11241FBECFEF53
:1000E000D8E0DEBFCDBF11E0A0E0B1E0E8E9F6E284
:1000F00002C005900D92AE3BB107D9F723E0AEEBFD
:10010000B1E001C01D92AC31B207E1F710E0CCE6DE
:10011000D0E004C02197FE010E945A10CB36D107CF
:10012000C9F70E942E0B0C943F130C940000089505
:10013000CF92DF92EF92FF920F931F93CF93DF93B3
:100140006C017A018B01C0E0D0E0CE15DF0589F0AB
:10015000D8016D918D01D601ED91FC910190F08156
:10016000E02DC6010995892B11F47E0102C021966C
:10017000ECCFC701DF91CF911F910F91FF90EF90CE
:10018000DF90CF900895FC01918D828D981761F0DA
:10019000828DDF01A80FB11D5D968C91928D9F5FBE
:1001A0009F73928F90E008958FEF9FEF0895FC0169
:1001B000918D828D981731F0828DE80FF11D858D1C
:1001C00090E008958FEF9FEF0895FC01918D228DAF
:1001D000892F90E0805C9F4F821B91098F73992734
:1001E00008958BE092E00E94E50021E0892B09F45C
:1001F00020E0822F0895FC01848DDF01A80FB11D3E
:10020000A35ABF4F2C91848D90E001968F7399274C
:10021000848FA689B7892C93A089B1898C91806439
:100220008C93938D848D981306C00288F389E02DFA
:1002300080818F7D80830895EF92FF920F931F93AB
:10024000CF93DF93EC0181E0888F9B8D8C8D981389
:1002500005C0E889F989808185FD24C0F62E0B8DC3
:1002600010E00F5F1F4F0F731127E02E8C8DE812E7
:100270000CC00FB607FCFACFE889F989808185FFA9
:10028000F5CFCE010E94FB00F1CF8B8DFE01E80F70
:10029000F11DE35AFF4FF0820B8FEA89FB898081C1
:1002A000806207C0EE89FF896083E889F9898081CF
:1002B0008064808381E090E0DF91CF911F910F9166
:1002C000FF90EF900895CF93DF93EC01888D882302
:1002D000C9F0EA89FB89808185FD05C0A889B989B3
:1002E0008C9186FD0FC00FB607FCF5CF808185FF8E
:1002F000F2CFA889B9898C9185FFEDCFCE010E94FC
:10030000FB00E7CFDF91CF91089580E090E0892B4B
:1003100029F00E94F10081110C94000008952091B1
:100320000502309106022817390771F490910302F3
:1003300080910402981741F0E0910302F0E0E2544A
:10034000FE4F808190E008958FEF9FEF089508950C
:100350001F93CF93DF93DC015C962D913C915D97C9
:100360002115310539F481E090E013969C938E932A
:1003700012973DC05196ED91FC91529750969C91E9
:100380005097892F80951FB75E964C915E9741FBE1
:10039000772770F941FD6095F8944081772311F03B
:1003A000492B01C048234083E9012197F1F748E038
:1003B000508160FF02C0592B01C058235083E901CE
:1003C0002197F1F76695415099F7772321F09081B5
:1003D0008923808303C08081982B90831FBF5C9604
:1003E0008D919C915D970197F1F721E030E0C90173
:1003F000DF91CF911F91089520910502309106025F
:100400002817390771F4809104022091030290E0CB
:10041000805C9F4F821B910960E470E00E9446104F
:10042000089580E090E00895209105023091060241
:1004300028173907B9F490910302809104029817A4
:1004400089F0E0910302F0E0E254FE4F80812091B8
:10045000030230E02F5F3F4F2F73332720930302B7
:1004600090E008958FEF9FEF08950F931F93CF9320
:10047000DF93EC0188819981009729F02A813B81E3
:100480002617370788F48B016F5F7F4F0E94941106
:10049000009761F0998388831B830A832C813D81B7
:1004A000232B11F4FC01108281E001C080E0DF9178
:1004B000CF911F910F910895FC0111821082138238
:1004C0001282158214826115710551F0FB010190B1
:1004D0000020E9F73197AF01461B570B0C944008F9
:1004E00008956115710579F0FB0101900020E9F78D
:1004F0003197AF01461B570BDC01ED91FC91028057
:10050000F381E02D099480E090E008954F925F928E
:100510006F927F92EF92FF920F931F93CF93DF938F
:10052000CDB7DEB7A1970FB6F894DEBF0FBECDBF33
:100530007C01FA01CB0119A2223008F42AE08E01D5
:100540000F5D1F4F422E512C612C712CBF01A30156
:1005500092010E940E13F901CA01015011096A307B
:1005600014F4605D01C0695CD8016C93232B242BCB
:10057000252B61F7B801C7010E947102A1960FB641
:10058000F894DEBF0FBECDBFDF91CF911F910F91C9
:10059000FF90EF907F906F905F904F900895CF9273
:1005A000DF92EF92FF920F931F93CF93DF93EC01B3
:1005B0006A017B01E881F9810190F081E02D6DE213
:1005C00009958C0144275527BA014C195D096E091C
:1005D0007F092AE0CE010E948602800F911FDF91E1
:1005E000CF911F910F91FF90EF90DF90CF900895E2
:1005F0000C9471021F920F920FB60F9211242F9339
:100600003F934F935F936F937F938F939F93AF939A
:10061000BF93EF93FF938BE092E00E94FB00FF916A
:10062000EF91BF91AF919F918F917F916F915F916A
:100630004F913F912F910F900FBE0F901F901895E3
:100640001F920F920FB60F9211242F938F939F93A7
:10065000EF93FF93E0911B02F0911C028081E091E7
:100660002102F091220282FD12C090818091240229
:100670008F5F8F7320912502821751F0E091240241
:10068000F0E0E55FFD4F958F8093240201C08081EB
:10069000FF91EF919F918F912F910F900FBE0F902F
:1006A0001F90189590E0FC01EA57FF4F3491FC0130
:1006B000EE53FF4F2491FC01E255FF4FE491EE23EE
:1006C00009F43BC0332339F1333091F038F4313041
:1006D000A9F0323001F584B58F7D12C0373091F02A
:1006E0003830A1F03430B9F4809180008F7D03C0A0
:1006F000809180008F77809380000DC084B58F77C4
:1007000084BD09C08091B0008F7703C08091B00094
:100710008F7D8093B000F0E0EE0FFF1FE656FF4F95
:10072000A591B4918FB7F894EC91611103C0209515
:100730002E2301C02E2B2C938FBF0895CF93DF93D0
:10074000EC0160E08E810E94520361E08E810E9484
:10075000520360E08E810E9452038BE891E0019782
:10076000F1F7DF91CF910895CF93DF9390E0FC01F3
:10077000EE53FF4F2491FC01E255FF4F84918823F3
:1007800061F190E0880F991FFC01E458FF4FC5917B
:10079000D491FC01E656FF4FA591B491611109C0B7
:1007A0009FB7F8948881209582238883EC912E232B
:1007B0000BC0623061F49FB7F8943881822F809526
:1007C00083238883EC912E2B2C939FBF06C08FB779
:1007D000F894E8812E2B28838FBFDF91CF91089565
:1007E0008E3008F08E508770806480937C008091FA
:1007F0007A00806480937A0080917A0086FDFCCF35
:10080000809178002091790090E0922B08953FB775
:10081000F8948091FF0190910002A0910102B091A3
:10082000020226B5A89B05C02F3F19F00196A11D15
:10083000B11D3FBFBA2FA92F982F8827820F911D76
:10084000A11DB11DBC01CD0142E0660F771F881FBD
:10085000991F4A95D1F708958F929F92AF92BF92B8
:10086000CF92DF92EF92FF926B017C010E9407040E
:100870004B015C01C114D104E104F104F1F00E94C8
:100880000704DC01CB0188199909AA09BB09883E34
:100890009340A105B10570F321E0C21AD108E10827
:1008A000F10888EE880E83E0981EA11CB11CC114CB
:1008B000D104E104F10419F7DDCFFF90EF90DF9050
:1008C000CF90BF90AF909F908F9008951F920F92FE
:1008D0000FB60F9211242F933F938F939F93AF9353
:1008E000BF938091140390911503A0911603B091CA
:1008F00017033091FE0123E0230F2D3720F40196DA
:10090000A11DB11D05C026E8230F0296A11DB11D32
:100910002093FE018093140390931503A093160374
:10092000B09317038091FF0190910002A091010202
:10093000B09102020196A11DB11D8093FF01909319
:100940000002A0930102B0930202BF91AF919F9168
:100950008F913F912F910F900FBE0F901F90189580
:100960001F920F920FB60F9211242F933F934F9324
:100970005F936F937F938F939F93AF93BF93EF9307
:10098000FF93E0910502F0910602309709F451C0FF
:10099000968DA685B785858591FF04C09C91892396
:1009A00029F447C09C91892309F043C0A389B489E5
:1009B0009C918589809589238C9386899789019755
:1009C000F1F7608D718DA685B785558538E020E0FB
:1009D000CB010197F1F7822F90E095958795282F0D
:1009E0004C91452309F02068315091F7868D81FDA7
:1009F00020958091040290E001968F7399273091A1
:100A00000302381749F0A0910402B0E0A254BE4F8F
:100A10002C938093040203C0868D8160868F828D23
:100A2000938D0197F1F7A389B4899C918589892BCE
:100A30008C93FF91EF91BF91AF919F918F917F9197
:100A40006F915F914F913F912F910F900FBE0F903B
:100A50001F901895CF92DF92EF92FF920F931F9302
:100A6000CF93DF937C016C0187E0C80ED11CC0E0FE
:100A7000D0E0062F10E0B8010C2E02C075956795E6
:100A80000A94E2F76170F60181916F010E945203AE
:100A90002196C430D10579F7C701DF91CF911F911D
:100AA0000F91FF90EF90DF90CF900C949E03CF9228
:100AB000DF92EF92FF920F931F93CF93DF93EC019E
:100AC000F62E642F8C810E9452038D818F3F19F086
:100AD00060E00E9452038F850F2D10E084FF25C037
:100AE0006E0187E0C80ED11CE12CF12CB8010E2C50
:100AF00002C0759567950A94E2F76170F6018191DD
:100B00006F010E945203FFEFEF1AFF0A88E0E81618
:100B1000F10461F7CE01DF91CF911F910F91FF900A
:100B2000EF90DF90CF900C949E03B80184E0759510
:100B300067958A95E1F7CE010E942A056F2DCE01B7
:100B4000DF91CF911F910F91FF90EF90DF90CF90A9
:100B50000C942A0541E00E94570581E090E0089539
:100B600040E00C94570561E00E94B0058BE39FE1E3
:100B70000197F1F708951F920F920FB60F9211246B
:100B80002F923F924F925F926F927F928F929F929D
:100B9000AF92BF92CF92DF92EF92FF920F931F938B
:100BA0002F933F934F935F936F937F938F939F9375
:100BB000AF93BF93EF93FF93CF93DF9300D000D019
:100BC000CDB7DEB7F8942091A8023091A9023A83FC
:100BD0002983C12CD12CE12CF12CA981BA81119649
:100BE0008C9190E0E816F906C4F4A981BA811296B6
:100BF0000D911C9113970C0D1D1DF80180810E9411
:100C0000F003D80119969C938E931897BFEFEB1AB7
:100C1000FB0AECE3CE0ED11CE0CF00E010E0212C6B
:100C2000312CF0E68F2EFAEE9F2EA12CB12CA9814B
:100C3000BA8111968C91119790E0281639060CF024
:100C40008CC1E981FA81828193819C01200F311F3F
:100C50003C832B83D90158964D905D906D907C908C
:100C60005B97F90180A991A9A2A9B3A9480E591EC1
:100C70006A1E7B1E40AA51AA62AA73AA848995891A
:100C8000A689B7897201E81AF90A868597850C97B3
:100C9000978786878685978597FD0BC0868597857C
:100CA000873F99404CF4D9011E968D919C911F97D6
:100CB00005C080E090E002C086EF99E0EB81FC8106
:100CC0009787868780859185C0ACD1AC8C159D05B2
:100CD0000CF58285938565E070E00E944610CB019B
:100CE000880F991F680F791F6E157F059CF4EB81A3
:100CF000FC812085318586A997A92817390754F4E6
:100D0000AB81BC8118968D919C911997D7969C9335
:100D10008E93D697EB81FC8180859185C816D90684
:100D200044F42085318584A995A9821793070CF492
:100D30003FC1FBEFEF16F1040CF454C0AB81BC8152
:100D400018968D919C911997C816D9060CF04AC037
:100D50001C968C911C97811145C01A968D919C917F
:100D60001B9765E070E00E944610CB01880F991F29
:100D7000680F791F6E157F050CF425C133C0EB8118
:100D8000FC817C964B815C81425D5F4F80E090E00E
:100D90002281338121933193820F931FE417F5074A
:100DA000B9F7AB81BC811A962D913C911B979F9608
:100DB0003C932E939E97820F931F6AE070E00E94EF
:100DC00032109B0140E050E0C501B4010E94B8120E
:100DD000EB81FC813783268321E0258786EF99E02C
:100DE00097878687AB81BC8118968D919C911997C6
:100DF0008C159D0524F41C968C91811119C1B5ECBC
:100E0000EB16B9E0FB0674F1EB81FC8180899189D6
:100E100091AF80AF20E032E035AB24AB37AB26ABEF
:100E2000DF01448A558A668A778AE1E0DA96EC9394
:100E3000DA97DB961C92DB971D961C921D971796EE
:100E40001C921E92169728E532E01B963C932E9337
:100E50001A971C961C921C9784E690E053969C93DC
:100E60008E935297AB81BC8112968D919C91139772
:100E700097FD09C01C962C91222311F061E001C05E
:100E800060E00E945203EB81FC81E480F580F7FC76
:100E90005EC0868597856AE070E00E9446106B010F
:100EA00061E08E2D0E94B403C114D10409F449C03D
:100EB000FFEFCF16D10409F446C0F701FF27EA5728
:100EC000FF4FE491E330F9F048F4E130B9F0E2305B
:100ED000A1F584B5806284BDC8BC39C0E730E9F0B3
:100EE000E83019F1E43049F5809180008062809308
:100EF0008000D0928B00C0928A0029C084B580689F
:100F000084BDC7BC24C0809180008068809380002D
:100F1000D0928900C09288001AC08091B000806889
:100F20008093B000C092B30012C08091B000806284
:100F30008093B000C092B4000AC020E8C216D10469
:100F400014F460E001C061E08E2D0E9452033FEF77
:100F5000231A330A045C1F4F6ACE81E018968C93E3
:100F600078940F900F900F900F90DF91CF91FF9199
:100F7000EF91BF91AF919F918F917F916F915F9111
:100F80004F913F912F911F910F91FF90EF90DF9024
:100F9000CF90BF90AF909F908F907F906F905F9019
:100FA0004F903F902F900F900FBE0F901F9018956D
:100FB000AB81BC8118968D919C911997D5969C9385
:100FC0008E93D497B6CE21E0EB81FC81248784896F
:100FD0009589A689B789F201E81BF90BAB81BC8121
:100FE0001B96FC93EE931A97FD01448A558A668AF4
:100FF000778A83AD882391F0EB81FC8113AE7C96D8
:101000008B819C81C096AB81BC811A962D913C91BD
:101010001B9721933193E817F907A9F7EB81FC811E
:1010200082AD882309F4ABCE12AE21E023AF1ACFF4
:10103000AB81BC811C961C921C97D6962D913C913D
:10104000D797D4968D919C91D597821B930B5396ED
:101050009C938E93529752968D919C91539797FDA6
:10106000019695958795820F931FEB81FC8191AF37
:1010700080AF95AB84AB97AB86ABC1CE0E945E12BE
:10108000EF92FF920F931F93CF93DF93EC017B01BD
:101090008A01BA010E9435022881398181110DC06F
:1010A0002115310519F0C9010E94FC10198218821E
:1010B0001D821C821B821A8206C01D830C83B7010D
:1010C000C9010E947512CE01DF91CF911F910F913E
:1010D000FF90EF900895EF92FF920F931F93CF939D
:1010E000DF93EC01623018F08F8588608F876B8BFF
:1010F0001C8A80E48D8B80E18E8B80E58F8B61E094
:101100008C810E94B4038D818F3F19F061E00E94B1
:10111000B40361E08E810E94B4037E0187E0E80E93
:10112000F11C00E010E08F8584FD03C084E090E0B6
:1011300002C088E090E0081719074CF461E0F7015D
:1011400081917F010E94B4030F5F1F4FECCF8BE3AF
:101150009DE00197F1F760E08C810E94520360E00E
:101160008E810E9452038D818F3F19F060E00E94B2
:1011700052036F8564FD1DC063E0CE010E942A0505
:101180000BE416E4C8010197F1F763E0CE010E9479
:101190002A05C8010197F1F763E0CE010E942A05F4
:1011A00083E592E00197F1F762E0CE010E942A0503
:1011B00016C06062CE010E94B0058BE496E40197F0
:1011C000F1F76F856062CE010E94B00583E592E081
:1011D0000197F1F76F856062CE010E94B0056F85BF
:1011E0006062CE010E94B00584E0888B6CE0CE0185
:1011F0000E94B005CE010E94B30582E0898B66E0B3
:10120000CE01DF91CF911F910F91FF90EF900C9441
:10121000B005843008F083E09091F502891710F052
:101220008FEF890FE82FF0E0EE51FD4F6489606881
:1012300082EE92E00C94B005CF93DF93EC018091A5
:10124000020390910303029709F5C130D10569F0BB
:1012500024F42097D9F460E009C0C230D10561F0D0
:10126000C330D10599F460E008C061E080910603C5
:101270000E94520361E006C061E0809106030E9473
:10128000520360E0809108030E94520380910203A0
:1012900090910303049709F03FC0C130D105B9F024
:1012A0004CF42097C9F561E0809106030E94520337
:1012B00060E013C0C230D105D9F0C330D10561F56B
:1012C00061E0809106030E94520360E017C060E075
:1012D000809106030E94520361E0809108030E94FE
:1012E000520361E080910A030E94520360E010C043
:1012F00060E0809106030E94520361E08091080340
:101300000E94520360E080910A030E94520361E050
:1013100080910C030E945203809102039091030379
:10132000059709F086C0CA30D10508F082C0FE01D9
:10133000EC5CFF4F0C945A1060E0809106030E9411
:10134000520361E061C060E0809106030E94520395
:1013500061E0809108030E94520360E05AC060E09F
:10136000809106030E94520361E0809108030E946D
:10137000520360E080910A030E94520361E04EC074
:1013800060E001C061E0809106030E94520361E0C9
:1013900006C061E0809106030E94520360E08091E4
:1013A00008030E94520360E00BC061E080910603D5
:1013B0000E94520360E0809108030E94520361E0A2
:1013C00080910A030E94520361E010C061E08091A5
:1013D00006030E94520360E0809108030E945203BA
:1013E00061E080910A030E94520360E080910C0347
:1013F0000E94520360E017C061E001C060E080918C
:1014000006030E94520360E0809108030E94520389
:1014100061E080910A030E94520360E080910C0316
:101420000E94520361E080910E03DF91CF910C94F2
:101430005203DF91CF9108954F925F926F927F9206
:101440008F929F92AF92BF92EF92FF920F931F9352
:10145000CF93DF93EC0197FF04C0CC27DD27C81B97
:10146000D90B181619063CF481E090E09093FB022A
:101470008093FA0206C0892B21F01092FB02109291
:10148000FA0204E010E08AE0E82EF12C209709F43B
:1014900068C00E9407048090100390901103A090F0
:1014A0001203B09013032B013C01481859086A0835
:1014B0007B088090FC029090FD02A090FE02B0900C
:1014C000FF02481459046A047B0400F3609310037C
:1014D0007093110380931203909313032091FA02E7
:1014E0003091FB0280910403909105032130310576
:1014F00089F40196909305038093040320910003DF
:101500003091010382179307C1F4109205031092E2
:10151000040313C0892B41F48091000390910103CF
:101520009093050380930403809104039091050335
:101530000197909305038093040321972091020360
:101540003091030380910403909105032530310508
:1015500011F4B70101C0B8010E9446100E941C0995
:1015600095CFDF91CF911F910F91FF90EF90BF909A
:10157000AF909F908F907F906F905F904F90089565
:101580002FB7F8948091140390911503A09116033E
:10159000B09117032FBF8093130290931402A0936E
:1015A0001502B0931602E0910B02F0910C02068036
:1015B000F781E02D8BE092E0099597FF26C02FB7C9
:1015C000F8948091140390911503A0911603B091A3
:1015D00017032FBF4091130250911402609115021E
:1015E00070911602841B950BA60BB70B40910F024E
:1015F00050911002609111027091120284179507A8
:10160000A607B70780F28FEF9FEF08958091AA0297
:101610009091AB020E94FC108091B0029091B102B7
:101620000E94FC108EE191E09093C4028093C3026B
:101630008091050290910602835C924071F4E091E2
:10164000D602F091D70290818091D80280958923AB
:10165000808310920602109205020895CF93DF93C3
:10166000CDB7DEB728970FB6F894DEBF0FBECDBF5B
:10167000789484B5826084BD84B5816084BD85B56D
:10168000826085BD85B5816085BD80916E00816079
:1016900080936E001092810080918100826080931F
:1016A0008100809181008160809381008091800021
:1016B0008160809380008091B10084608093B1004C
:1016C0008091B00081608093B00080917A00846046
:1016D00080937A0080917A00826080937A00809172
:1016E0007A00816080937A0080917A00806880938C
:1016F0007A001092C1001092DE021092DD02109268
:10170000DC021092DB021092DA021092D9028DE90B
:1017100091E09093E0028093DF029091CF029631A6
:1017200008F057C02DEB30E03093DA022093D90255
:101730002BE931E03093DC022093DB022CE231E034
:101740003093DE022093DD0220916800983050F043
:1017500031E09E3008F430E081E001C0880F3A9516
:10176000EAF701C084E0822B80936800983038F05B
:101770009E3040F0963148F020E030E008C02DE681
:1017800030E005C02BE630E002C02CE630E03093BC
:10179000D7022093D602983030F481E001C0880F40
:1017A0009A95EAF70EC0292F30E09E3018F42850A1
:1017B000310902C02E50310981E001C0880F2A95FD
:1017C000EAF78093D8028091DF029091E0020197BE
:1017D000F1F78091DD029091DE02892B49F1E091D1
:1017E0000502F091060282E0E33CF80709F1309728
:1017F00039F0A389B4899C918589809589238C933C
:101800008091E1028E7F8093E10210920402109297
:10181000030283EC92E09093060280930502E0912C
:10182000D602F091D70290818091D802892B8083D3
:10183000E0911B02F0911C0282E08083E09117028C
:10184000F09118021082E0911902F0911A028FECC7
:10185000808310922302E0911F02F091200286E023
:101860008083E0911D02F0911E028081806180835F
:10187000E0911D02F0911E02808188608083E091DA
:101880001D02F0911E02808180688083E0911D021C
:10189000F0911E0280818F7D808320910003309122
:1018A0000103032E000C440B550B60E077E883E93D
:1018B00093E00E94B812CA01B90124E630E040E08A
:1018C00050E00E94B8122093FC023093FD02409336
:1018D000FE025093FF02E091B802F091B90211822A
:1018E00010828DE090E093838283F89486E292E008
:1018F000918B808B91AF80AF7894C12CD12CE12C4F
:10190000F12C8091B70290E0E816F90664F5009199
:10191000B8021091B9020C0D1D1DF801828193814E
:1019200097FD08C061E00E94B40360E0F801828185
:101930000E945203F8018481958197FD0DC061E0FA
:101940000E94B403F801148161E0812F0E94B40366
:1019500060E0812F0E945203FFEFEF1AFF0A8CE331
:10196000C80ED11CCECF0E940704DC01CB018053EE
:10197000984FAF4FBF4F8093BA029093BB02A09392
:10198000BC02B093BD021092BE021092B602109239
:101990008000109282008CE0809381008CE790E0C0
:1019A000909389008093880082E080936F00789400
:1019B00062E371E08BE092E00E94710264E571E005
:1019C0008BE092E00E94710262E082EE92E00E945F
:1019D0006B0880E00E94090967E571E082EE92E001
:1019E0000E94F80281E00E94090963E671E082EE3C
:1019F00092E00E94F8026DE671E08BE092E00E94B6
:101A0000F802CC24CA9483E0D82EE12CF12C08EE05
:101A100013E0E091B802F091B902A680B780F89483
:101A2000858515867894882341F165E771E08BE020
:101A300092E00E94710264E571E08BE092E00E9406
:101A4000710262E971E08BE092E00E94F802A50168
:101A5000BB0C660B770B77FF05C08BE092E00E9412
:101A6000CF0205C02AE08BE092E00E94860264E586
:101A700071E08BE092E00E94710264E170E080E02E
:101A800090E00E942C048BE092E00E94E500892BFC
:101A900009F4D0C066E571E0CE0101960E945C02B7
:101AA0000E94C00A97FD1CC08F831886AD80BE803F
:101AB000EFEFAE1ABE0AB501CE0101960E943502C3
:101AC000882371F329813A818D819E81BE01695FEE
:101AD0007F4F820F931F0E947512BE82AD82E0CFAE
:101AE0008091B0029091B1020097C9F069817A812A
:101AF0006115710591F04091B2025091B3022D81B0
:101B00003E814217530748F00E9475128D819E81D5
:101B10009093B5028093B40218C00E94FC10898192
:101B20009A819093B1028093B0028B819C819093B3
:101B3000B3028093B2028D819E819093B50280930F
:101B4000B4021A8219821C821B821E821D82898124
:101B50009A810E94FC104091B4025091B5026091AC
:101B6000B0027091B1028BE092E00E9498008091E7
:101B7000B4029091B502A090B002B090B102892B4E
:101B800009F44AC068E971E0C5010E946C12892B12
:101B900001F542E050E06AE971E08AEA92E00E94D1
:101BA000400882EE92E00E94B30580E00E9409099D
:101BB0006DE971E082EE92E00E94F80264EF71E05C
:101BC00080E090E00E942C0482EE92E00E94B30537
:101BD00031C065EA71E0C5010E946C12892BE1F405
:101BE00043E050E067EA71E08AEA92E00E94400830
:101BF00082EE92E00E94B30580E00E94090967EA44
:101C000071E082EE92E00E94F80264EF71E080E001
:101C100090E00E942C040EC0A114B10421F0C50173
:101C20000E947C1203C060E070E0CB0170930A0256
:101C3000609309028091AE029091AF02892B09F462
:101C40007BC06AE971E08091AA029091AB020E9488
:101C50006C12892B09F070C08EE00E94F00323E61D
:101C600030E0DC010E946010A70196010E94B812CA
:101C7000DA01C9010196A11DB11D9093080280935C
:101C8000070280E00E9409096BEA71E082EE92E0AF
:101C90000E94F8024091070250910802052E000CA4
:101CA000660B770B77FF05C082EE92E00E94CF02B1
:101CB00005C02AE082EE92E00E94860281E00E9446
:101CC000090961EB71E082EE92E00E94F802409116
:101CD000090250910A02052E000C660B770B77FF64
:101CE00005C082EE92E00E94CF0205C02AE082EE9B
:101CF00092E00E94860268EB71E082EE92E00E9420
:101D0000F80280E590E00E941C0A809109029091FF
:101D10000A024801881A990A092C000CAA08BB0873
:101D2000C501B4010E942C0480EB9FEF0E941C0AA5
:101D3000C501B4010E942C040E9485016ACECF9295
:101D4000DF92EF92FF9210920E0210920D0298EE27
:101D5000C92E93E0D92EE12CF12CC0920F02D09223
:101D60001002E0921102F09212028EE091E0909344
:101D70000C0280930B0285EC90E090931802809304
:101D8000170284EC90E090931A028093190280EC81
:101D900090E090931C0280931B0281EC90E0909362
:101DA0001E0280931D0282EC90E0909320028093AB
:101DB0001F0286EC90E09093220280932102109201
:101DC00024021092250210922602109227021092ED
:101DD0000503109204031092FB021092FA02109273
:101DE000100310921103109212031092130380E259
:101DF00090E0909301038093000388E090E090933B
:101E000007038093060389E090E090930903809391
:101E100008038AE090E090930B0380930A038BE021
:101E200090E090930D0380930C0361E088E00E94A2
:101E3000B40361E0809108030E94B40361E08091E3
:101E40000A030E94B40361E080910C030E94B40372
:101E500010920F0310920E0384E090E0909303031E
:101E6000809302031092E5021092E4028EE291E068
:101E70009093E3028093E2028DE08093E6028FEF7D
:101E80008093E7028CE08093E80285E08093E9028A
:101E900084E08093EA0283E08093EB0282E0809307
:101EA000EC021092ED021092EE021092EF021092EC
:101EB000F0021092F10261E082EE92E00E946B0863
:101EC0001092C6021092C502C092C702D092C802F8
:101ED000E092C902F092CA028EE191E09093C402AE
:101EE0008093C3021092DA021092D9021092DC029F
:101EF0001092DB021092DE021092DD021092E002DC
:101F00001092DF026091E1026E7F6D7F6093E102CB
:101F10006695617081E068270E94520361E081E06C
:101F20000E94B403E3ECF0E0E491E093D302EFEA23
:101F3000F0E0E491F0E0EE0FFF1FE656FF4F8591D1
:101F400094919093D5028093D40260E080E00E9447
:101F5000B4038091E10281FD04C061E080E00E9451
:101F600052031092CF02E2ECF0E0E491E093D00251
:101F7000EEEAF0E0E491F0E0EE0FFF1FEC55FF4FCA
:101F8000859194919093D2028093D1021092C002D5
:101F90001092BF0282E090E09093C2028093C1024F
:101FA00086EB92E09093A9028093A80281E080934F
:101FB000B7028CE390E00E946710FC018EE090E095
:101FC000918380838FEF9FEF9383828395838483B4
:101FD00082E090E0A0E0B0E0808F918FA28FB38F7D
:101FE000DF015C96CF01C0961D921D92A817B9071C
:101FF000D9F71586178216828EEE92E09387828734
:10200000148610AA11AA12AA13AA148A158A168A6B
:10201000178A80E092E095AB84AB97AB86AB86E203
:1020200092E0918B808B91AF80AF84E690E0938BB0
:10203000828B81E082AF13AE17861686F093B902C9
:10204000E093B80266E571E080EB92E00E945C02EA
:1020500067EA71E08AEA92E0FF90EF90DF90CF901C
:102060000C945C02AA1BBB1B51E107C0AA1FBB1F3B
:10207000A617B70710F0A61BB70B881F991F5A9514
:10208000A9F780959095BC01CD01089597FB072E87
:1020900016F4009407D077FD09D00E94321007FC97
:1020A00005D03EF4909581959F4F08957095619568
:1020B0007F4F0895EE0FFF1F0590F491E02D0994D6
:1020C0000E943013B7FF0895821B930B0895CF939E
:1020D000DF938230910510F482E090E0E0911A03E2
:1020E000F0911B0320E030E0C0E0D0E0309711F128
:1020F0004081518148175907C0F04817590761F4CA
:1021000082819381209719F09B838A832BC09093BF
:102110001B0380931A0326C02115310519F04217BD
:10212000530718F49A01BE01DF01EF010280F38129
:10213000E02DDCCF2115310509F1281B390B2430A6
:10214000310590F412968D919C911397611571054C
:1021500021F0FB019383828304C090931B0380933F
:102160001A03FD01329644C0FD01E20FF31F819373
:102170009193225031092D933C933AC0209118033A
:1021800030911903232B41F4209102013091030176
:10219000309319032093180320910001309101011D
:1021A0002115310541F42DB73EB7409104015091FE
:1021B0000501241B350BE0911803F0911903E21778
:1021C000F307A0F42E1B3F0B2817390778F0AC015A
:1021D0004E5F5F4F2417350748F04E0F5F1F509337
:1021E0001903409318038193919302C0E0E0F0E05B
:1021F000CF01DF91CF9108950F931F93CF93DF937A
:10220000009709F48CC0FC0132971382128200916E
:102210001A0310911B030115110581F420813181EE
:10222000820F931F20911803309119032817390743
:1022300079F5F0931903E093180371C0D80140E0D9
:1022400050E0AE17BF0750F412962D913C911397B2
:10225000AD012115310509F1D901F3CF9D01DA0155
:102260003383228360817181860F971F82179307C2
:1022700069F4EC0128813981260F371F2E5F3F4F0B
:10228000318320838A819B8193838283452B29F428
:10229000F0931B03E0931A0342C01396FC93EE9352
:1022A0001297ED01499159919E01240F351FE217B4
:1022B000F30771F480819181840F951F0296119626
:1022C0009C938E938281938113969C938E93129705
:1022D000E0E0F0E0D80112968D919C911397009761
:1022E00019F0F8018C01F6CF8D919C9198012E5F29
:1022F0003F4F820F931F2091180330911903281725
:10230000390769F4309729F410921B0310921A03CD
:1023100002C0138212821093190300931803DF91F5
:10232000CF911F910F910895A0E0B0E0EAE9F1E1AB
:102330000C94DB12EC01009721F4CB010E94671092
:10234000B8C0FC01E60FF71F9C0122503109E217CB
:10235000F30708F4ACC0D9010D911C911197061731
:102360001707B0F00530110508F49FC0C8010497A5
:102370008617970708F499C002501109061B170B1E
:10238000019311936D937C93CF010E94FC108DC03B
:102390005B01A01AB10A4C01800E911EA0911A0394
:1023A000B0911B0340E050E0E12CF12C109709F4B0
:1023B0004AC0A815B905D1F56D907C9011976301BD
:1023C00082E0C80ED11CCA14DB0480F1A3014A19B3
:1023D0005B096A0182E0C80ED11C1296BC9012976C
:1023E0001396AC91B5E0CB16D10440F0B282A38332
:1023F00051834083D9016D937C930AC00E5F1F4FB8
:10240000C301800F911FF90191838083EB2DFA2F77
:10241000E114F10431F0D7011396FC93EE93129777
:1024200044C0F0931B03E0931A033FC08D919C912D
:1024300011974817590708F4AC017D0112960D90C9
:10244000BC91A02DB3CF80911803909119038815EA
:102450009905E1F446175707C8F48091000190915F
:102460000101009741F48DB79EB74091040150914E
:102470000501841B950BE817F907C8F4F0931903BD
:10248000E0931803F901718360830FC0CB010E94B0
:1024900067107C01009759F0A801BE010E946312E9
:1024A000CE010E94FC10C70104C0CE0102C080E032
:1024B00090E0CDB7DEB7EEE00C94F71281E090E04B
:1024C000F8940C943F13FB01DC0102C001900D92C3
:1024D00041505040D8F70895FB01DC018D910190E7
:1024E00080190110D9F3990B0895FB01DC010190CB
:1024F0000D920020E1F708951F93FC01992788278A
:10250000BC01E89411911032E9F3193010F01E303B
:10251000C8F31B3251F01D3249F4689406C00E9482
:10252000A312610F711D811D911D119110531A305D
:10253000B0F33EF490958095709561957F4F8F4FE5
:102540009F4F1F910895592F482F372F262F660F21
:10255000771F881F991F660F771F881F991F620FAB
:10256000731F841F951F660F771F881F991F08957B
:10257000052E97FB1EF400940E94CF1257FD07D042
:102580000E940E1307FC03D04EF40C94CF1250950A
:102590004095309521953F4F4F4F5F4F089590954F
:1025A0008095709561957F4F8F4F9F4F08952F9223
:1025B0003F924F925F926F927F928F929F92AF92D3
:1025C000BF92CF92DF92EF92FF920F931F93CF9320
:1025D000DF93CDB7DEB7CA1BDB0B0FB6F894DEBFB7
:1025E0000FBECDBF09942A88398848885F846E84DD
:1025F0007D848C849B84AA84B984C884DF80EE8027
:10260000FD800C811B81AA81B981CE0FD11D0FB62F
:10261000F894DEBF0FBECDBFED010895A1E21A2EE2
:10262000AA1BBB1BFD010DC0AA1FBB1FEE1FFF1F76
:10263000A217B307E407F50720F0A21BB30BE40BC6
:10264000F50B661F771F881F991F1A9469F760950D
:102650007095809590959B01AC01BD01CF010895C7
:10266000A29FB001B39FC001A39F700D811D1124D3
:10267000911DB29F700D811D1124911D089510E0D0
:10268000CCE6D0E004C0FE010E945A102196CD365F
:08269000D107C9F7F894FFCF50
:1026980000001C03800001000000000000001C0175
:1026A8009800E500C300D700630100000000A801FE
:1026B8009800FC0114028F01A70100000000AA0580
:1026C80098005765206372656174656420612070A5
:1026D800756C736553656E736F72204F626A6563BC
:1026E800742021000D0A0048656C6C6F20776F72AA
:1026F8006C640057656C6C20446F6E650048656CAF
:102708006C6F212100E299A5202041204865617263
:1027180074426561742048617070656E656420213B
:10272800200042504D3A200079004F4E0057454C4A
:10273800434F4D45006E004F4646004F58593A20CA
:0E27480000526174653A20002020202000001D
:00000001FF
